:020000020000FC
:040000000C941C0040
:100034000C943B0048E04EBF4FEF4DBF41E040936E
:100044006F007894E6E8E0938500E1E6E0938400AD
:10005400F0E0F0938000F5E0F0938100239A569A43
:100064005E982B9A0E9443002B980E9443000C94A4
:10007400330010E401270BB90E944E0001270BB98D
:10008400189579E286E99FE79A95F1F78A95E1F761
:100094007A95D1F70000089592E5ABE2B0E0BA9505
:0C00A400F1F7AA95E1F79A95D1F70895BD
:00000001FF
